{
  "contractName": "SkillTree",
  "abi": [
    {
      "inputs": [
        {
          "internalType": "address",
          "name": "_admin",
          "type": "address"
        }
      ],
      "stateMutability": "nonpayable",
      "type": "constructor"
    },
    {
      "anonymous": false,
      "inputs": [
        {
          "indexed": false,
          "internalType": "address",
          "name": "user",
          "type": "address"
        },
        {
          "indexed": false,
          "internalType": "string",
          "name": "name",
          "type": "string"
        },
        {
          "indexed": false,
          "internalType": "bool",
          "name": "is_issuer",
          "type": "bool"
        },
        {
          "indexed": false,
          "internalType": "bool",
          "name": "is_expert",
          "type": "bool"
        },
        {
          "indexed": false,
          "internalType": "bytes",
          "name": "other_info",
          "type": "bytes"
        }
      ],
      "name": "NewUser",
      "type": "event"
    },
    {
      "anonymous": false,
      "inputs": [
        {
          "indexed": true,
          "internalType": "address",
          "name": "previousOwner",
          "type": "address"
        },
        {
          "indexed": true,
          "internalType": "address",
          "name": "newOwner",
          "type": "address"
        }
      ],
      "name": "OwnershipTransferred",
      "type": "event"
    },
    {
      "anonymous": false,
      "inputs": [
        {
          "indexed": false,
          "internalType": "address",
          "name": "user",
          "type": "address"
        },
        {
          "indexed": false,
          "internalType": "string",
          "name": "name",
          "type": "string"
        },
        {
          "indexed": false,
          "internalType": "bool",
          "name": "is_issuer",
          "type": "bool"
        },
        {
          "indexed": false,
          "internalType": "bool",
          "name": "is_expert",
          "type": "bool"
        },
        {
          "indexed": false,
          "internalType": "bytes",
          "name": "other_info",
          "type": "bytes"
        }
      ],
      "name": "UserChanged",
      "type": "event"
    },
    {
      "inputs": [],
      "name": "admin",
      "outputs": [
        {
          "internalType": "address",
          "name": "",
          "type": "address"
        }
      ],
      "stateMutability": "view",
      "type": "function",
      "constant": true
    },
    {
      "inputs": [],
      "name": "owner",
      "outputs": [
        {
          "internalType": "address",
          "name": "",
          "type": "address"
        }
      ],
      "stateMutability": "view",
      "type": "function",
      "constant": true
    },
    {
      "inputs": [],
      "name": "renounceOwnership",
      "outputs": [],
      "stateMutability": "nonpayable",
      "type": "function"
    },
    {
      "inputs": [
        {
          "internalType": "address",
          "name": "newOwner",
          "type": "address"
        }
      ],
      "name": "transferOwnership",
      "outputs": [],
      "stateMutability": "nonpayable",
      "type": "function"
    },
    {
      "inputs": [
        {
          "internalType": "address",
          "name": "_address",
          "type": "address"
        },
        {
          "internalType": "string",
          "name": "_name",
          "type": "string"
        },
        {
          "internalType": "bytes",
          "name": "_other_info",
          "type": "bytes"
        },
        {
          "internalType": "bool",
          "name": "_is_issuer",
          "type": "bool"
        },
        {
          "internalType": "bool",
          "name": "_is_expert",
          "type": "bool"
        }
      ],
      "name": "update_user",
      "outputs": [],
      "stateMutability": "nonpayable",
      "type": "function"
    },
    {
      "inputs": [
        {
          "internalType": "string",
          "name": "_name",
          "type": "string"
        },
        {
          "internalType": "bytes",
          "name": "_other_info",
          "type": "bytes"
        },
        {
          "internalType": "bool",
          "name": "_is_issuer",
          "type": "bool"
        },
        {
          "internalType": "bool",
          "name": "_is_expert",
          "type": "bool"
        }
      ],
      "name": "sign_up",
      "outputs": [],
      "stateMutability": "nonpayable",
      "type": "function"
    },
    {
      "inputs": [],
      "name": "number_of_users",
      "outputs": [
        {
          "internalType": "uint256",
          "name": "",
          "type": "uint256"
        }
      ],
      "stateMutability": "view",
      "type": "function",
      "constant": true
    },
    {
      "inputs": [
        {
          "internalType": "address",
          "name": "_address",
          "type": "address"
        }
      ],
      "name": "get_user",
      "outputs": [
        {
          "components": [
            {
              "internalType": "string",
              "name": "name",
              "type": "string"
            },
            {
              "internalType": "bytes",
              "name": "other_info",
              "type": "bytes"
            },
            {
              "internalType": "bool",
              "name": "is_issuer",
              "type": "bool"
            },
            {
              "internalType": "bool",
              "name": "is_expert",
              "type": "bool"
            },
            {
              "internalType": "uint256",
              "name": "state",
              "type": "uint256"
            }
          ],
          "internalType": "struct SkillTree.userStruct",
          "name": "",
          "type": "tuple"
        }
      ],
      "stateMutability": "view",
      "type": "function",
      "constant": true
    },
    {
      "inputs": [
        {
          "internalType": "address",
          "name": "_address",
          "type": "address"
        }
      ],
      "name": "is_expert",
      "outputs": [
        {
          "internalType": "bool",
          "name": "",
          "type": "bool"
        }
      ],
      "stateMutability": "view",
      "type": "function",
      "constant": true
    },
    {
      "inputs": [
        {
          "internalType": "address",
          "name": "_address",
          "type": "address"
        }
      ],
      "name": "is_issuer",
      "outputs": [
        {
          "internalType": "bool",
          "name": "",
          "type": "bool"
        }
      ],
      "stateMutability": "view",
      "type": "function",
      "constant": true
    },
    {
      "inputs": [
        {
          "internalType": "address",
          "name": "_address",
          "type": "address"
        }
      ],
      "name": "approve_user",
      "outputs": [],
      "stateMutability": "nonpayable",
      "type": "function"
    }
  ],
  "bytecode": "0x60806040523480156200001157600080fd5b5060405162001e3638038062001e36833981810160405281019062000037919062000157565b60006200005262000138640100000000026401000000009004565b9050806000806101000a81548173ffffffffffffffffffffffffffffffffffffffff021916908373ffffffffffffffffffffffffffffffffffffffff1602179055508073ffffffffffffffffffffffffffffffffffffffff16600073ffffffffffffffffffffffffffffffffffffffff167f8be0079c531659141344cd1fd0a4f28419497f9722a3daafe3b4186f6b6457e060405160405180910390a35080600160006101000a81548173ffffffffffffffffffffffffffffffffffffffff021916908373ffffffffffffffffffffffffffffffffffffffff16021790555050620001d1565b600033905090565b6000815190506200015181620001b7565b92915050565b6000602082840312156200016a57600080fd5b60006200017a8482850162000140565b91505092915050565b6000620001908262000197565b9050919050565b600073ffffffffffffffffffffffffffffffffffffffff82169050919050565b620001c28162000183565b8114620001ce57600080fd5b50565b611c5580620001e16000396000f3fe608060405234801561001057600080fd5b50600436106100c6576000357c0100000000000000000000000000000000000000000000000000000000900480638da5cb5b1161008e5780638da5cb5b1461015b578063a4e200cd14610179578063ac2ab212146101a9578063d63d13eb146101d9578063f2fde38b146101f5578063f851a44014610211576100c6565b806322821132146100cb5780634b5bda1f146100e9578063610c661a14610105578063715018a61461012157806371ad72211461012b575b600080fd5b6100d361022f565b6040516100e09190611ae1565b60405180910390f35b61010360048036038101906100fe91906114a9565b61023c565b005b61011f600480360381019061011a91906113d0565b6104ef565b005b61012961064f565b005b610145600480360381019061014091906113d0565b6107a4565b6040516101529190611abf565b60405180910390f35b610163610a06565b6040516101709190611924565b60405180910390f35b610193600480360381019061018e91906113d0565b610a2f565b6040516101a091906119a4565b60405180910390f35b6101c360048036038101906101be91906113d0565b610b0c565b6040516101d091906119a4565b60405180910390f35b6101f360048036038101906101ee91906113f9565b610be9565b005b61020f600480360381019061020a91906113d0565b610ec8565b005b61021961108c565b6040516102269190611924565b60405180910390f35b6000600280549050905090565b60003390506000600360008373ffffffffffffffffffffffffffffffffffffffff1673ffffffffffffffffffffffffffffffffffffffff16815260200190815260200160002060030154146102c6576040517f08c379a00000000000000000000000000000000000000000000000000000000081526004016102bd906119bf565b60405180910390fd5b6040518060a0016040528088888080601f016020809104026020016040519081016040528093929190818152602001838380828437600081840152601f19601f82011690508083019250505050505050815260200186868080601f016020809104026020016040519081016040528093929190818152602001838380828437600081840152601f19601f820116905080830192505050505050508152602001841515815260200183151581526020016001815250600360008373ffffffffffffffffffffffffffffffffffffffff1673ffffffffffffffffffffffffffffffffffffffff16815260200190815260200160002060008201518160000190805190602001906103d59291906110ba565b5060208201518160010190805190602001906103f292919061113a565b5060408201518160020160006101000a81548160ff02191690831515021790555060608201518160020160016101000a81548160ff021916908315150217905550608082015181600301559050506002819080600181540180825580915050600190039060005260206000200160009091909190916101000a81548173ffffffffffffffffffffffffffffffffffffffff021916908373ffffffffffffffffffffffffffffffffffffffff1602179055507f8da73a73f39a633d64232a55b2d09612ad8c9638e91ccb8a949c2b558f182e3e81888886868a8a6040516104de979695949392919061193f565b60405180910390a150505050505050565b600160009054906101000a900473ffffffffffffffffffffffffffffffffffffffff1673ffffffffffffffffffffffffffffffffffffffff163373ffffffffffffffffffffffffffffffffffffffff161461057f576040517f08c379a0000000000000000000000000000000000000000000000000000000008152600401610576906119ff565b60405180910390fd5b6001600360008373ffffffffffffffffffffffffffffffffffffffff1673ffffffffffffffffffffffffffffffffffffffff1681526020019081526020016000206003015414610604576040517f08c379a00000000000000000000000000000000000000000000000000000000081526004016105fb90611a7f565b60405180910390fd5b6002600360008373ffffffffffffffffffffffffffffffffffffffff1673ffffffffffffffffffffffffffffffffffffffff1681526020019081526020016000206003018190555050565b6106576110b2565b73ffffffffffffffffffffffffffffffffffffffff166000809054906101000a900473ffffffffffffffffffffffffffffffffffffffff1673ffffffffffffffffffffffffffffffffffffffff16146106e5576040517f08c379a00000000000000000000000000000000000000000000000000000000081526004016106dc90611a9f565b60405180910390fd5b600073ffffffffffffffffffffffffffffffffffffffff166000809054906101000a900473ffffffffffffffffffffffffffffffffffffffff1673ffffffffffffffffffffffffffffffffffffffff167f8be0079c531659141344cd1fd0a4f28419497f9722a3daafe3b4186f6b6457e060405160405180910390a360008060006101000a81548173ffffffffffffffffffffffffffffffffffffffff021916908373ffffffffffffffffffffffffffffffffffffffff160217905550565b6107ac6111ba565b6000600360008473ffffffffffffffffffffffffffffffffffffffff1673ffffffffffffffffffffffffffffffffffffffff1681526020019081526020016000206003015411610831576040517f08c379a000000000000000000000000000000000000000000000000000000000815260040161082890611a5f565b60405180910390fd5b600360008373ffffffffffffffffffffffffffffffffffffffff1673ffffffffffffffffffffffffffffffffffffffff1681526020019081526020016000206040518060a0016040529081600082018054600181600116156101000203166002900480601f0160208091040260200160405190810160405280929190818152602001828054600181600116156101000203166002900480156109145780601f106108e957610100808354040283529160200191610914565b820191906000526020600020905b8154815290600101906020018083116108f757829003601f168201915b50505050508152602001600182018054600181600116156101000203166002900480601f0160208091040260200160405190810160405280929190818152602001828054600181600116156101000203166002900480156109b65780601f1061098b576101008083540402835291602001916109b6565b820191906000526020600020905b81548152906001019060200180831161099957829003601f168201915b505050505081526020016002820160009054906101000a900460ff161515151581526020016002820160019054906101000a900460ff161515151581526020016003820154815250509050919050565b60008060009054906101000a900473ffffffffffffffffffffffffffffffffffffffff16905090565b600080600360008473ffffffffffffffffffffffffffffffffffffffff1673ffffffffffffffffffffffffffffffffffffffff1681526020019081526020016000206003015411610ab5576040517f08c379a0000000000000000000000000000000000000000000000000000000008152600401610aac90611a5f565b60405180910390fd5b600360008373ffffffffffffffffffffffffffffffffffffffff1673ffffffffffffffffffffffffffffffffffffffff16815260200190815260200160002060020160019054906101000a900460ff169050919050565b600080600360008473ffffffffffffffffffffffffffffffffffffffff1673ffffffffffffffffffffffffffffffffffffffff1681526020019081526020016000206003015411610b92576040517f08c379a0000000000000000000000000000000000000000000000000000000008152600401610b8990611a5f565b60405180910390fd5b600360008373ffffffffffffffffffffffffffffffffffffffff1673ffffffffffffffffffffffffffffffffffffffff16815260200190815260200160002060020160009054906101000a900460ff169050919050565b8673ffffffffffffffffffffffffffffffffffffffff163373ffffffffffffffffffffffffffffffffffffffff1614610c57576040517f08c379a0000000000000000000000000000000000000000000000000000000008152600401610c4e90611a1f565b60405180910390fd5b6000600360008973ffffffffffffffffffffffffffffffffffffffff1673ffffffffffffffffffffffffffffffffffffffff1681526020019081526020016000206003015411610cdc576040517f08c379a0000000000000000000000000000000000000000000000000000000008152600401610cd390611a3f565b60405180910390fd5b8585600360008a73ffffffffffffffffffffffffffffffffffffffff1673ffffffffffffffffffffffffffffffffffffffff1681526020019081526020016000206000019190610d2d9291906111ed565b508383600360008a73ffffffffffffffffffffffffffffffffffffffff1673ffffffffffffffffffffffffffffffffffffffff1681526020019081526020016000206001019190610d7f92919061126d565b5081600360008973ffffffffffffffffffffffffffffffffffffffff1673ffffffffffffffffffffffffffffffffffffffff16815260200190815260200160002060020160006101000a81548160ff02191690831515021790555080600360008973ffffffffffffffffffffffffffffffffffffffff1673ffffffffffffffffffffffffffffffffffffffff16815260200190815260200160002060020160016101000a81548160ff0219169083151502179055506001600360008973ffffffffffffffffffffffffffffffffffffffff1673ffffffffffffffffffffffffffffffffffffffff168152602001908152602001600020600301819055507feb5f43970227b3a8275c69124746d99ce3faadd47b7bba7f4fdeb9fbcc7ad0bf87878785858989604051610eb7979695949392919061193f565b60405180910390a150505050505050565b610ed06110b2565b73ffffffffffffffffffffffffffffffffffffffff166000809054906101000a900473ffffffffffffffffffffffffffffffffffffffff1673ffffffffffffffffffffffffffffffffffffffff1614610f5e576040517f08c379a0000000000000000000000000000000000000000000000000000000008152600401610f5590611a9f565b60405180910390fd5b600073ffffffffffffffffffffffffffffffffffffffff168173ffffffffffffffffffffffffffffffffffffffff161415610fce576040517f08c379a0000000000000000000000000000000000000000000000000000000008152600401610fc5906119df565b60405180910390fd5b8073ffffffffffffffffffffffffffffffffffffffff166000809054906101000a900473ffffffffffffffffffffffffffffffffffffffff1673ffffffffffffffffffffffffffffffffffffffff167f8be0079c531659141344cd1fd0a4f28419497f9722a3daafe3b4186f6b6457e060405160405180910390a3806000806101000a81548173ffffffffffffffffffffffffffffffffffffffff021916908373ffffffffffffffffffffffffffffffffffffffff16021790555050565b600160009054906101000a900473ffffffffffffffffffffffffffffffffffffffff1681565b600033905090565b828054600181600116156101000203166002900490600052602060002090601f016020900481019282601f106110fb57805160ff1916838001178555611129565b82800160010185558215611129579182015b8281111561112857825182559160200191906001019061110d565b5b50905061113691906112ed565b5090565b828054600181600116156101000203166002900490600052602060002090601f016020900481019282601f1061117b57805160ff19168380011785556111a9565b828001600101855582156111a9579182015b828111156111a857825182559160200191906001019061118d565b5b5090506111b691906112ed565b5090565b6040518060a001604052806060815260200160608152602001600015158152602001600015158152602001600081525090565b828054600181600116156101000203166002900490600052602060002090601f016020900481019282601f1061122e57803560ff191683800117855561125c565b8280016001018555821561125c579182015b8281111561125b578235825591602001919060010190611240565b5b50905061126991906112ed565b5090565b828054600181600116156101000203166002900490600052602060002090601f016020900481019282601f106112ae57803560ff19168380011785556112dc565b828001600101855582156112dc579182015b828111156112db5782358255916020019190600101906112c0565b5b5090506112e991906112ed565b5090565b61130f91905b8082111561130b5760008160009055506001016112f3565b5090565b90565b60008135905061132181611bf1565b92915050565b60008135905061133681611c08565b92915050565b60008083601f84011261134e57600080fd5b8235905067ffffffffffffffff81111561136757600080fd5b60208301915083600182028301111561137f57600080fd5b9250929050565b60008083601f84011261139857600080fd5b8235905067ffffffffffffffff8111156113b157600080fd5b6020830191508360018202830111156113c957600080fd5b9250929050565b6000602082840312156113e257600080fd5b60006113f084828501611312565b91505092915050565b600080600080600080600060a0888a03121561141457600080fd5b60006114228a828b01611312565b975050602088013567ffffffffffffffff81111561143f57600080fd5b61144b8a828b01611386565b9650965050604088013567ffffffffffffffff81111561146a57600080fd5b6114768a828b0161133c565b945094505060606114898a828b01611327565b925050608061149a8a828b01611327565b91505092959891949750929550565b600080600080600080608087890312156114c257600080fd5b600087013567ffffffffffffffff8111156114dc57600080fd5b6114e889828a01611386565b9650965050602087013567ffffffffffffffff81111561150757600080fd5b61151389828a0161133c565b9450945050604061152689828a01611327565b925050606061153789828a01611327565b9150509295509295509295565b61154d81611b56565b82525050565b61155c81611b68565b82525050565b61156b81611b68565b82525050565b600061157d8385611b23565b935061158a838584611b9e565b61159383611be0565b840190509392505050565b60006115a982611afc565b6115b38185611b12565b93506115c3818560208601611bad565b6115cc81611be0565b840191505092915050565b60006115e38385611b45565b93506115f0838584611b9e565b6115f983611be0565b840190509392505050565b600061160f82611b07565b6116198185611b34565b9350611629818560208601611bad565b61163281611be0565b840191505092915050565b600061164a601883611b45565b91507f54686973207573657220616c72656164792065786973747300000000000000006000830152602082019050919050565b600061168a602683611b45565b91507f4f776e61626c653a206e6577206f776e657220697320746865207a65726f206160008301527f64647265737300000000000000000000000000000000000000000000000000006020830152604082019050919050565b60006116f0601683611b45565b91507f4f6e6c792061646d696e2063616e20617070726f7665000000000000000000006000830152602082019050919050565b6000611730601583611b45565b91507f4f6e6c79206f776e65722063616e2075706461746500000000000000000000006000830152602082019050919050565b6000611770601183611b45565b91507f43726561746520757365722066697273740000000000000000000000000000006000830152602082019050919050565b60006117b0601983611b45565b91507f4e6f2075736572207769746820746861742061646472657373000000000000006000830152602082019050919050565b60006117f0602183611b45565b91507f54686973207573657220646f6573206e6f74206e65656420617070726f76696e60008301527f67000000000000000000000000000000000000000000000000000000000000006020830152604082019050919050565b6000611856602083611b45565b91507f4f776e61626c653a2063616c6c6572206973206e6f7420746865206f776e65726000830152602082019050919050565b600060a08301600083015184820360008601526118a68282611604565b915050602083015184820360208601526118c0828261159e565b91505060408301516118d56040860182611553565b5060608301516118e86060860182611553565b5060808301516118fb6080860182611906565b508091505092915050565b61190f81611b94565b82525050565b61191e81611b94565b82525050565b60006020820190506119396000830184611544565b92915050565b600060a082019050611954600083018a611544565b818103602083015261196781888a6115d7565b90506119766040830187611562565b6119836060830186611562565b8181036080830152611996818486611571565b905098975050505050505050565b60006020820190506119b96000830184611562565b92915050565b600060208201905081810360008301526119d88161163d565b9050919050565b600060208201905081810360008301526119f88161167d565b9050919050565b60006020820190508181036000830152611a18816116e3565b9050919050565b60006020820190508181036000830152611a3881611723565b9050919050565b60006020820190508181036000830152611a5881611763565b9050919050565b60006020820190508181036000830152611a78816117a3565b9050919050565b60006020820190508181036000830152611a98816117e3565b9050919050565b60006020820190508181036000830152611ab881611849565b9050919050565b60006020820190508181036000830152611ad98184611889565b905092915050565b6000602082019050611af66000830184611915565b92915050565b600081519050919050565b600081519050919050565b600082825260208201905092915050565b600082825260208201905092915050565b600082825260208201905092915050565b600082825260208201905092915050565b6000611b6182611b74565b9050919050565b60008115159050919050565b600073ffffffffffffffffffffffffffffffffffffffff82169050919050565b6000819050919050565b82818337600083830152505050565b60005b83811015611bcb578082015181840152602081019050611bb0565b83811115611bda576000848401525b50505050565b6000601f19601f8301169050919050565b611bfa81611b56565b8114611c0557600080fd5b50565b611c1181611b68565b8114611c1c57600080fd5b5056fea26469706673582212203b2e70b14d133c03bc970f49d6e3f8fceaa55dc5558ec4f1b2b4eb1b6fdeff1c64736f6c63430006060033",
  "immutableReferences": {},
  "source": "pragma solidity ^0.6.6;\npragma experimental ABIEncoderV2;\n\nimport \"openzeppelin-solidity/contracts/access/Ownable.sol\";\n//import \"@nomiclabs/buidler/console.sol\";\n\ncontract SkillTree is Ownable {\n  address public admin;\n\n  constructor(address _admin) public {\n    admin = _admin;\n    //console.log(\"Skilltree app admin is:\",_admin);\n  }   \n\n  /* =========================================\n    Users\n  \n    Settings bits\n    0: issuer\n    1: expert\n  ========================================= */\n  \n  struct userStruct {\n    string  name;\n    bytes   other_info;  // ipfs hash?\n    bool    is_issuer;\n    bool    is_expert;\n    uint    state;\n  }\n\n  /*\n     User.state\n     0: nonexistent\n     1: needs_approval\n     2: active\n     3: disabled\n  */\n\n  address[]  private userArray;\n  mapping (address => userStruct) private userMap;\n\n  event UserChanged(address user,string name,bool is_issuer,bool is_expert,bytes other_info);\n  \n  function update_user(address _address, string calldata _name, bytes calldata _other_info, bool _is_issuer, bool _is_expert) external {\n    require((msg.sender == _address), \"Only owner can update\");\n    require((userMap[_address].state > 0), \"Create user first\");\n    \n    userMap[_address].name       = _name;\n    userMap[_address].other_info = _other_info;\n    userMap[_address].is_issuer  = _is_issuer;\n    userMap[_address].is_expert  = _is_expert;\n    userMap[_address].state      = 1; // after any change user needs to be approved. This is not flexible enough. Will need to improve. \n      \n    emit UserChanged(_address, _name, _is_issuer, _is_expert, _other_info);\n  }\n    \n  event NewUser(address user,string name,bool is_issuer,bool is_expert,bytes other_info);\n \n  function sign_up(string calldata _name, bytes calldata _other_info, bool _is_issuer, bool _is_expert) external {\n    address _address = msg.sender;\n    require((userMap[_address].state == 0), \"This user already exists\");\n   \n    userMap[_address] = userStruct(_name, _other_info, _is_issuer, _is_expert, 1); \n    userArray.push(_address);\n    emit NewUser(_address, _name, _is_issuer, _is_expert, _other_info);\n  }\n\n  /*\n  function add_user(address _address, string calldata _name, bytes calldata _other_info, int _is_issuer, int _is_expert) external {\n    require((userMap[_address].state == 0), \"This user already exists\");\n   \n    bool is_issuer = (_is_issuer == 0 ? false : true);\n    bool is_expert = (_is_expert == 0 ? false : true);\n    \n    userMap[_address] = userStruct(_name, _other_info, is_issuer, is_expert, 1); \n    userArray.push(_address);\n    emit NewUser(_address, _name, is_issuer, is_expert, _other_info);\n  }\n  */\n    \n  function number_of_users() public view returns (uint256) {\n    return userArray.length;\n  }\n\n  // get user by position\n  //function get_user_by_position(uint position) public view returns ( string memory ) {\n  //  require((userArray.length > position), \"No user at that position\");\n  //  return(userMap[userArray[position]]);\n  //}\n\n  // get user by address\n  function get_user(address _address) public view returns (userStruct memory) {\n    require((userMap[_address].state > 0), \"No user with that address\");\n    return(userMap[_address]);\n  }\n  \n  // Determining user type\n  function is_expert(address _address) public view returns (bool) {\n    require((userMap[_address].state > 0), \"No user with that address\");\n    return(userMap[_address].is_expert);\n  }\n\n  function is_issuer(address _address) public view returns (bool) {\n    require((userMap[_address].state > 0), \"No user with that address\");\n    return(userMap[_address].is_issuer);\n  }\n\n  //\n  // Admin functions\n  //\n\n  function approve_user(address _address) public{\n    require((msg.sender == admin), \"Only admin can approve\");\n    require((userMap[_address].state == 1), \"This user does not need approving\");\n    userMap[_address].state = 2;\n  }\n}\n",
  "sourcePath": "/home/user/code/sk_truffle/contracts/SkillTree.sol",
  "compiler": {
    "name": "solc",
    "version": "0.6.6+commit.6c089d02.Emscripten.clang"
  },
  "schemaVersion": "3.2.3",
  "updatedAt": "2020-08-10T15:55:42.533Z",
  "networkType": "ethereum",
  "devdoc": {
    "methods": {
      "owner()": {
        "details": "Returns the address of the current owner."
      },
      "renounceOwnership()": {
        "details": "Leaves the contract without owner. It will not be possible to call `onlyOwner` functions anymore. Can only be called by the current owner.     * NOTE: Renouncing ownership will leave the contract without an owner, thereby removing any functionality that is only available to the owner."
      },
      "transferOwnership(address)": {
        "details": "Transfers ownership of the contract to a new account (`newOwner`). Can only be called by the current owner."
      }
    }
  },
  "userdoc": {
    "methods": {}
  }
}